:020000040800F2
:1000000020150020010100082F120008D911000856
:100010002D120008990100088B1B00080000000049
:100020000000000000000000000000002117000890
:100030009B0100080000000051120008231700086F
:100040001B0100081B0100081B0100081B01000820
:100050001B0100081B0100081B0100081B01000810
:100060001B0100081B0100081B0100081B01000800
:100070001B0100081B0100081B0100081B010008F0
:100080001B0100081B0100081B0100081B010008E0
:100090001B0100081B0100081B0100081B010008D0
:1000A0001B0100081B0100081B0100081B010008C0
:1000B0001B0100081B0100081B0100081B010008B0
:1000C0001B0100081B0100081B0100081B010008A0
:1000D0001B010008B91A00081B0100081B010008D9
:1000E0001B0100081B0100081B010008DFF80CD0F1
:1000F00000F040F8004800471537000820150020A0
:100100000648804706480047FEE7FEE7FEE7FEE7B1
:10011000FEE7FEE7FEE7FEE7FEE7FEE775170008ED
:10012000ED000008D2B201E000F8012B491EFBD21D
:1001300070470022F6E710B513460A4604461946F2
:10014000FFF7F0FF204610BD30B50B4601460020FA
:100150002022012409E021FA02F59D4205D303FA89
:1001600002F5491B04FA02F52844151EA2F101020A
:10017000F1DC30BD064C074D06E0E06840F00103BD
:1001800094E8070098471034AC42F6D3FFF7B2FF6B
:10019000FC3B00081C3C0008FEE77047002200F012
:1001A00001B8000030B50E4B054601205C7A012CE9
:1001B00015D8587A00241C54587A03EB8000456007
:1001C0005D7A03F108002A54587A421C5A72303082
:1001D00008703A2048702F208870CC70002030BD05
:1001E0001001002000B5ADF50F7D01F051F9012897
:1001F00019D017A001F0C0FD01221AA1684602F033
:10020000CFFD18B1214618A001F0B6FD8CAA8DA92A
:1002100014A002F082F940B121461CA001F0ACFD0F
:100220000DF50F7D00BD22A0E4E78C988D9AD0F8E3
:10023000141290F80202891E41435043C0F3CF22AA
:10024000C1F3CF218B1A1FA001F096FDE8E7000053
:100250005344BFA8B3F5CABCBBAFB3C9B9A6A3A1E9
:10026000200D0A00303A000046696C6553797374BA
:10027000656D204D6F756E746564204661696C65AF
:100280006420282564290D0A0000000047657420B9
:1002900053444361726420436170616369747920DF
:1002A0004661696C656420282564290D0A000000F8
:1002B0005344BFA8B3F5CABCBBAFCAA7B0DC21206A
:1002C0000D0A00000D0A2564204D4220746F7461F0
:1002D0006C2064726976652073706163652E0D0A07
:1002E0002564204D4220617661696C61626C652EE7
:1002F0000D0A2564204D422020757365642E0D0A79
:100300000000000010B590F821100024022903D04D
:100310000421816301243DE001680A6822F00E0295
:100320000A6001680A6822F001020A601A4A01683C
:10033000914201D1012121E0174A1432914201D1A9
:1003400010211BE0144A2832914201D1891515E091
:10035000114A3C32914201D189140FE00E4A5032C9
:10036000914202D14FF4803108E00B4A643291424D
:1003700002D14FF4801101E04FF08071064A083A33
:100380005160012180F82110002180F82010416B7C
:1003900001B18847204610BD0800024070B50446F0
:1003A00000F0F2F80546601C02D0044800780444CE
:1003B00000F0EAF8401BA042FAD370BD44000020D0
:1003C0002DE9F84FDFF890A100220AF1040B144642
:1003D00001274FF00F090BF1040E00BF0B6807FA5D
:1003E00004F52B40AB4274D1DFF870C14E68A6EB28
:1003F0000C0866452BD00DDC032E34D005DC36B35B
:10040000012E19D0022E2FD11BE0112E16D0122E44
:100410002AD119E0B8F5881F19D006DCB8F5803F5D
:1004200015D0B8F5801F1FD111E0B8F5001F0ED010
:10043000B8F5041F18D10AE0CA6815E0CA68121D91
:1004400012E0CA6808320FE0CA680C320CE08A6811
:100450002AB1012A4FF0080203D0456104E00422CA
:1004600002E0056100E00022FF2B01D8064601E012
:1004700000F104064FEA840501D9A5F12005D6F85C
:1004800000C009FA05F82CEA080C02FA05F54CEA56
:10049000050CC6F800C04D68ED0057D5304DAE696B
:1004A00046F00106AE61AD6924F0030605F00105D2
:1004B00000952C4D06EB050CDCF80850A6074FEA1A
:1004C000167809FA08F6B543274EB04202D1002645
:1004D00010E03BE0254EB04201D101260AE0244E57
:1004E000B04201D1022605E0224EB04201D10326DE
:1004F00000E0042606FA08F62E43CCF808604D68A2
:10050000DAF80060ED03554601D51E4300E09E4336
:100510002E604D68DBF80060AD035D4601D51E43DB
:1005200000E09E432E604D68DEF80060ED027546E7
:1005300001D51E4300E09E432E604D68AD020E4D76
:100540002E6801D51E4300E09E432E60641C102CD3
:10055000FFF444AFBDE8F88F000401400000111023
:10056000001002400000014000080140000C014062
:1005700000100140001401400C0401400AB1016167
:1005800070470904FBE700000148806870470000DD
:10059000440000200248816802781144816070475D
:1005A00044000020074810B5016841F010010160C7
:1005B000032000F073F8002000F006F800F024F8A3
:1005C000002010BD0020024070B50D4D04464FF4D0
:1005D0007A712878B1FBF0F00A490968B1FBF0F0B4
:1005E00000F062FC48B9102C07D200222146501EB0
:1005F00000F034F800206C6070BD012070BD000078
:1006000044000020500000200C4808B5816941F0EA
:1006100001018161816901F001010091C16941F02D
:100620008051C161C06900F0805000900448416869
:1006300021F0E06141F00071416008BD001002400E
:100640000000014000F01F0201219140400980009C
:1006500000F1E020C0F8001170470000F0B40E4B2C
:100660001B680C46C3F30223C3F10705042D00D910
:100670000425191D072901D2002300E0DB1E0126F5
:1006800006FA05F1491E214099409E40761E16400B
:100690003143F0BC00F0CCBD0CED00E0064900F0A9
:1006A000070208684FF6FF03184040EA0220034A99
:1006B00010430860704700000CED00E00000FA05F0
:1006C0002DE9F047DFF8548105460E46D8F80000C2
:1006D00000F00700B0420CD2D8F8001021F007015A
:1006E0003143C8F80010D8F8000000F00700B0420D
:1006F0006FD128684A4C810712D5400703D560683E
:1007000040F4E06060602878000703D5606840F43A
:10071000605060606068A96820F0F0000843606085
:100720002878C00744D06868012816D021680228BC
:1007300016D0890700294CDA616821F003010143D2
:100740006160FFF721FF6968074641F2883001299F
:100750000ED00229814618D026E021688903E9E7F6
:100760008901E7E7FFF710FFC11B494501D918E0F0
:1007700081466068C0F381000128F3D118E000BF12
:10078000FFF702FFC11B49450BD86068C0F3810029
:100790000228F5D10CE000BFFFF7F6FEC11B49456A
:1007A00002D90320BDE8F087606810F00C0FF3D188
:1007B000D8F80010404601F00701B1420BD901689A
:1007C00021F0070131430160006800F00700B042EA
:1007D00001D00120E6E72878400705D56068E96880
:1007E00020F4E060084360602878000706D5606860
:1007F000296920F4605040EAC100606000F036F8DA
:100800006168084AC1F30311515CC8400649086099
:100810000020FFF7D9FE0020C4E7000000200240BE
:1008200000100240363B00085000002004480549F3
:1008300000684968044AC1F30221515CC84070470E
:100840005000002000100240463B000804480549C3
:1008500000684968044AC1F3C221515CC84070472E
:100860005000002000100240463B000812A185B055
:100870000FC98DE80F0014A0144A00680490516855
:10088000134801F00C03042B10D0082B0ED1C1F338
:100890008343C9031DF803000AD5516804AAC1F3B4
:1008A0004041515C0A4A5043B0FBF1F005B070473B
:1008B00008494843FAE7000002030405060708094F
:1008C0000A0B0C0D0E0F1010010200000010024068
:1008D00000127A0000093D002DE9F84F0446007827
:1008E000B94DC00748D06868C0F38100012807D01F
:1008F0006868C0F38100022809D16868C00306D582
:100900002868800338D5606800286FD034E06068BC
:10091000B0F5803F0BD010B1B0F5A02F11D02868F2
:1009200020F480302860286820F4802002E02868C5
:1009300040F480302860606888B1FFF725FE0646E5
:1009400009E0286840F480202860F0E7FFF71CFEEB
:10095000801B642875D828688003F7D50CE0FFF762
:1009600013FE064605E000BFFFF70EFE801B64285D
:10097000F0D828688003F7D42078944E80074FF091
:1009800001094FF000083BD5686810F00C0F07D044
:100990006868C0F38100022809D16868C00306D4E2
:1009A0002868800714D5206901281FD110E020692C
:1009B000B0B1C6F80090FFF7E7FD074605E000BFBD
:1009C000FFF7E2FDC01B0228C4D828688007F7D5CE
:1009D0002868616920F0F80040EAC10028600FE053
:1009E000C6F80080FFF7D0FD074606E0E9E000BF4B
:1009F000FFF7CAFDC01B022823D828688007F7D458
:100A0000207800072CD57248A169D9B1C0F80090B0
:100A1000FFF7BAFD074604E0FFF7B6FDC01B02284A
:100A20000FD8686A8007F7D56A484FF4FA51006812
:100A3000B0FBF1F0009000BF0098411E0091FAD287
:100A40000EE080E0C0F80080FFF79EFD074604E05E
:100A5000FFF79AFDC01B022875D8686A8007F7D493
:100A60002078400760D5E8690027C00008D4E8690D
:100A700040F08050E861E869012700F08050009064
:100A800055480168C90513D40168834641F4807153
:100A90000160FFF779FD824606E000BFFFF774FDB5
:100AA000A0EB0A0064284ED8DBF80000C005F5D59D
:100AB000E06801280AD008B1052813D0286A20F080
:100AC00001002862286A20F0040002E0286A40F051
:100AD00001002862E06841F2883B98B1FFF754FDBD
:100AE00082460BE0286A40F004002862EEE700BF6F
:100AF000FFF74AFDA0EB0A0159455AD8286A80073A
:100B0000F6D50CE0FFF740FD824605E0FFF73CFD1F
:100B1000A0EB0A0159454CD8286A8007F6D41FB1CA
:100B2000E86920F08050E861E06988B36968C1F342
:100B30008101022945D00228C6F8608004D0FFF761
:100B400023FD044638E034E0FFF71EFD074604E0CD
:100B5000FFF71AFDC01B02282BD828688001F7D4A4
:100B6000206AB0F5803F05D16868A16820F40030A4
:100B700008436860D4E908010843696821F47411E6
:100B800008436860C6F86090FFF7FEFC044606E084
:100B900015E000BFFFF7F8FC001B022809D8286801
:100BA0008001F7D50BE000BFFFF7EEFC001B022829
:100BB00002D90320BDE8F88F28688001F4D4002012
:100BC000F8E70120F6E70000001002400000424272
:100BD00080044242500000200070004070B50400C4
:100BE00005D00025A56294F8510010B104E0012061
:100BF00070BD204600F034F8022084F851002068CF
:100C0000016821F040010160D4E901010843D4E901
:100C100003121143084361690843218B01F40071F9
:100C20000843E1690843216A0843A16A084321682F
:100C30000860A069042101EA1040616A0843216844
:100C400048602168E06A08612068C16921F4006198
:100C5000C1616565012084F85100002070BD00006D
:100C600030B585B000240094019402940394006888
:100C70001449884223D11448816941F4805181612B
:100C8000816901F480510491816941F0040181611D
:100C900080690E4D00F004000490A0200090022016
:100CA00001900320039069462846FFF789FB402006
:100CB000CDE90004694628460294FFF781FB05B0A0
:100CC00030BD00000030014000100240000801402B
:100CD0002DE9F84F044690F8500000260A9F9A46E6
:100CE00093460D464FF0010801280ED0012084F8EC
:100CF0005000FFF749FC814694F8510061680128D3
:100D00000CD0B1F5827F07D102E00220BDE8F88F58
:100D1000A16809B9042801D00226BDE055B1BBF194
:100D2000000F07D0BAF1000F04D094F85100012849
:100D300002D004E00126AFE0052084F85100002035
:100D40006065C4F838B0A4F83EA0A4F83CA02563C0
:100D5000A4F836A0A4F834A0206460642068016878
:100D6000490603D4016841F040010160E068B0F534
:100D7000006F606804D0E8B3E08E01283BD06AE0E1
:100D800010B1E08E01282ED1216835F8020BC86021
:100D9000E08E401EE08626E0B8F1000F0DD0E08E18
:100DA00058B120688168890707D535F8021BC160F2
:100DB000E08E401EE0864FF00008E08F58B12068BA
:100DC0008168C90707D0C0682BF8020BE08F401E6E
:100DD000E0874FF00108781C05D0FFF7D5FBA0EBAA
:100DE0000900B84246D2E08E0028D5D1E08F002815
:100DF000D2D136E0FFE7216815F8010B0873E08EC9
:100E0000401EE08627E000BFB8F1000F0DD0E08E55
:100E100058B120688168890707D515F8011B01734F
:100E2000E08E401EE0864FF00008E08F58B1206849
:100E30008168C90707D0C0680BF8010BE08F401E1E
:100E4000E0874FF00108781C05D0FFF79DFBA0EB71
:100E50000900B8420ED2E08E0028D5D1E08F0028DC
:100E6000D2D13B46012202212046CDF8009000F06D
:100E700005FC08B103260FE04A463946204600F03B
:100E8000EDFB18B101262020606505E0A06818B9C7
:100E90002068C16880680090012084F8510000201B
:100EA00084F85000304631E710B5401EB0F1807F25
:100EB00001D3012010BD4FF0E02460610F216017C5
:100EC00000F0B6F90020A06107202061002010BDCD
:100ED0007047000070B5026804461068D168536915
:100EE00010F00F0F50D003F0010501F49076354358
:100EF0005DD0C20705D0CA0503D5E26B42F00102FE
:100F0000E263420705D5DA0703D0E26B42F0020242
:100F1000E263820705D5DA0703D0E26B42F00402F0
:100F2000E263020705D5DA0703D0E26B42F008025C
:100F3000E263E26B002A33D0800604D5880602D52E
:100F4000204600F051FC20684069E16BC0F380103E
:100F5000090700D428B3204600F038FC2068416916
:100F600049061AD5416921F040014161606BA0B189
:100F70001B494163606BFFF7C5F9002810D0606B17
:100F8000416BBDE870400847830610D58B060ED52F
:100F90002046BDE8704000F027BC2046FFF798FFD0
:100FA00070BD2046FFF794FF0020E06370BD03068C
:100FB00006D50B0604D52046BDE8704000F018BDEC
:100FC0004006F3D54806F1D5D168204621F040010E
:100FD000D160202184F8391000F0FDF870BD0000C8
:100FE000BD17000870B5040004D094F8390000253E
:100FF00010B106E0012070BD84F83850204600F0A2
:1010000023F8242084F839002068C16821F40051B5
:10101000C160204600F034FC2068016921F4904151
:1010200001612068416921F02A0141612068C1689D
:1010300041F40051C160E563202084F8390084F850
:101040003A00002070BD000030B585B00024009447
:101050000194029403940068184988422CD11848DE
:10106000816941F480418161816901F48041049189
:10107000816941F0040181618069124D00F0040032
:1010800004904FF400700090022001900320039020
:1010900069462846FFF794F92815CDE9000469460A
:1010A00028460294FFF78CF9002211462520FFF70D
:1010B000D5FA2520FFF7C6FA05B030BD003801404B
:1010C000001002400008014090F83A30202B22D155
:1010D000F9B1F2B190F83830012B1CD081628285D1
:1010E000C2850021C163222280F83A2080F838109E
:1010F0000168CA6842F48072CA6001684A6942F0B5
:1011000001024A610068C16841F02001C16000200D
:101110007047012070470220704770472DE9F8435F
:10112000044690F839001F4616460D46202850D137
:10113000A5B19EB194F8380001284AD0012084F866
:1011400038004FF00008C4F83C80212084F83900B2
:10115000FFF71AFAA6848146E68426E00120BDE85E
:10116000F883E08C401EE084A0684B46B0F5805FB9
:101170004FF000024FF080012046009703D000F0AE
:1011800068FCE8B90DE000F064FCC8B92888216863
:10119000C0F308004860206908B16D1C05E0AD1C73
:1011A00003E0216815F8010B4860E08C0028D8D1D5
:1011B0004B46002240212046009700F04AFC08B12F
:1011C0000320CCE7202084F8390084F83880002000
:1011D000C5E70220C3E77047FEE7000010B50449E9
:1011E0000448FEF7DBFF0249491E087010BD0000ED
:1011F0003D000020280000200B480A494FF40072EF
:1012000001604FF48271416000218160C160016121
:10121000C0E90512C1610162416281620A21C162B5
:10122000FFF7DCBC0030014060000020FEE77047A3
:101230000907090E002806DA00F00F0000F1E0208F
:1012400080F8141D704700F1E02080F8001470470A
:1012500070470000044B20B1002210211846FFF710
:101260008DB90122F9E700000008014070B505467C
:1012700001220021092000F0B9F910F0FF0404D187
:101280001021284600F078F804460020FFF7E2FF1E
:101290000CB1012070BD002070BD1FB56846FFF77E
:1012A000E5FF10B1002004B010BD9DF80010012032
:1012B000B0EB911F09D19DF808209DF8091000EBB3
:1012C0000220084400048009EDE79DF805009DF820
:1012D0000A1000F00F0000EBD1109DF809109DF8E6
:1012E000072001F0030100EB41019DF8080080098F
:1012F00000EB82009DF8062002F0030200EB822042
:10130000401CC91F8840CEE72DE9F0410646194828
:1013100015464078062800D049024FF40077012D89
:101320004FF001021AD0122000F060F93946304621
:1013300000F022F86D1E044606F5007615F0FF0554
:1013400001D0002CF2D0012200210C2000F04EF937
:101350000020FFF77FFF2046BDE8F081112000F05C
:1013600045F910F0FF04F3D13946304600F004F897
:101370000446EDE70000002070B505460C4601204C
:10138000FFF768FFFF2002F01DFB06466420FFF711
:1013900005F8FE2EF6D103E002F014FB05F8010B70
:1013A000641EA4B24FF0FF00F6D202F00BFBFF2048
:1013B00002F008FB002070BD70B50C460546FF200A
:1013C00002F000FBFF28FAD1204602F0FBFAFD2CC8
:1013D00018D000244FF40076285D02F0F3FA641C64
:1013E000A4B2B442F8D3FF2002F0ECFAFF2002F0DE
:1013F000E9FAFF2002F0E6FA00F01F00052801D00C
:10140000022070BD002070BD70B506461F4815460D
:101410000C464078062800D04C02012D14D001283B
:1014200009D001220021372000F0E0F801222946EE
:10143000172000F0DBF801222146192000F0D6F831
:1014400010F0FF040BD01BE001222146182000F011
:10145000CDF810F0FF0413D1FE2130460DE0FC2141
:101460003046FFF7A9FF6D1E06F5007615F0FF0563
:1014700001D00028F3D0FD210020FFF79DFF044696
:101480000020FFF7E7FE204670BD000000000020AE
:101490002DE9FC410027DFF84C81009738200197A7
:1014A000C8F81C003846FFF7D5FE4F4D00242878B9
:1014B00002F088FA641CA4B20A2CF8D30021952209
:1014C000084600F093F8C0B20128F7D16F70872268
:1014D0004FF4D571082000F089F8C0B2012873D10B
:1014E00000246E46287802F06DFA3055641CE4B290
:1014F000042CF7D39DF802004FF6FE74012803D1A7
:101500009DF80300AA281FD001220021372000F0F7
:101510006DF801220021292000F068F8C0B20128EE
:101520003DD80220687001220021372000F05EF8CB
:1015300001220021292000F059F810F0FF0F3BD0C4
:10154000641EA4B2EFD237E04FF0804701220021A1
:10155000372000F04BF801223946292000F046F8E8
:1015600010F0FF0F02D0641EA4B2EFD2B4B101227A
:1015700000213A2000F03AF880B90024FF2002F060
:1015800021FA3055641CE4B2042CF7D39DF8000016
:10159000400601D5062000E00420687014E0012018
:1015A000687001220021104600F020F810F0FF0FB3
:1015B00002D0641EA4B2F4D22CB101225102102038
:1015C00000F014F800B16F700020FFF743FE002018
:1015D000C8F81C00687810B10020BDE8FC8101202B
:1015E000FBE7000060000020000000202DE9F04132
:1015F000054617460C460020FFF72CFE1420FEF788
:10160000CDFE0120FFF726FE134E307802F0DAF906
:10161000FF28FAD145F0400002F0D4F9200E02F084
:10162000D1F9C4F3074002F0CDF9C4F3072002F06A
:10163000C9F9E0B202F0C6F9384602F0C3F90C2D40
:1016400002D1307802F0BEF9FF2002F0BBF90106AA
:10165000FAD4BDE8F08100000000002038B50B4648
:10166000009204460022802100F008F8002804D0EF
:10167000606D40F020006065032038BD2DE9F04129
:101680001D4617460E460446DDF8188035E0681CF6
:1016900033D02DB1FEF778FFA0EB0800A8422CD381
:1016A0002068416821F0E00141606068B0F5827F08
:1016B0000BD1A068B0F5004F02D0B0F5806F04D117
:1016C0002068016821F040010160A06AB0F5005F68
:1016D0000AD1206801684DF6FF7211400160206850
:1016E000016841F400510160012084F8510000209C
:1016F00084F850000320BDE8F0812068806836EA55
:10170000000004D00020B842C1D10020F3E701203E
:10171000F9E700000149C86170470000600000203F
:101720007047FEF737BF30B58FB028216846FEF707
:1017300000FD14210AA8FEF7FCFC022401200490FD
:1017400000941020059000254FF46010CDE908505A
:1017500007946846FFF7C0F80F20CDE90A048020FF
:10176000CDE90C0502210AA80E95FEF7A9FF0FB0DE
:1017700030BD00000D48016841F001010160416881
:101780000B4A1140416001680A4A1140016001683A
:1017900021F480210160416821F4FE0141604FF491
:1017A0001F0181600449C0030860704700100240B7
:1017B0000000FFF8FFFFF6FE08ED00E010B5406AFC
:1017C0000021C185C184FFF783FB10BD0168CA6891
:1017D00022F49072CA6001684A6922F001024A61EB
:1017E000202180F83A10704710B590F83A1022295D
:1017F00001D0022010BD8168B1F5805F11D0016970
:10180000002901681FD0496801F07F03816A4A1CE2
:1018100082620B70C18D491E0904090CC18518D064
:101820002BE00269816A002A0268526805D0D2B2B0
:101830000A80816A491C8162ECE7C2F308020A80CF
:10184000816A891CF7E74A68816A4B1C83620A70C7
:10185000E0E70168CA6822F02002CA600168CA682D
:1018600022F48072CA6001684A6922F001024A616A
:10187000202180F83A10FFF750FC002010BD000036
:101880002DE9F041044600680169E26821F4405105
:10189000114301612169A068084361690843216817
:1018A000CA6841F20C639A430243CA6020684169E6
:1018B000A26921F44071114341614C4920686425BB
:1018C000322688423CD1FEF7C1FF00EBC00101EB9C
:1018D000001061688900B0FBF1F7FEF7B7FF00EB7D
:1018E000C00101EB00106168B0468900B0FBF1F067
:1018F000B0FBF5F06FF01801484307EB800106EBF1
:101900000110B0FBF5F000F0F006FEF79FFF00EBD2
:10191000C00101EB001061688900B0FBF1F0B0FB81
:10192000F5F006EB0016FEF791FF00EBC00101EBAE
:10193000001061688900B0FBF1F7FEF787FF3BE01C
:10194000FEF774FF00EBC00101EB00106168890035
:10195000B0FBF1F7FEF76AFF00EBC00101EB0010EE
:101960006168B0468900B0FBF1F0B0FBF5F06FF0B4
:101970001801484307EB800106EB0110B0FBF5F0BE
:1019800000F0F006FEF752FF00EBC00101EB001083
:1019900061688900B0FBF1F0B0FBF5F006EB0016D2
:1019A000FEF744FF00EBC00101EB00106168890005
:1019B000B0FBF1F7FEF73AFF00EBC00101EB0010BE
:1019C00061688900B0FBF1F0B0FBF5F06FF0180131
:1019D000484307EB800108EB0110B0FBF5F02168EC
:1019E00000F00F0030448860BDE8F081003801400D
:1019F00090F83910212901D0022070478168B1F593
:101A0000805F016A0BD04A1C02620268097851604B
:101A1000C18C491E0904090CC1840ED017E0098845
:101A20000268C1F30801516001690029016A02D00E
:101A3000491C0162ECE7891CFBE70168CA6822F0D7
:101A40008002CA600068C16841F04001C1600020A6
:101A500070472DE9F041984617460E460446069D0C
:101A60001DE0681C1BD02DB1FEF78EFDA0EB080019
:101A7000A84214D92068C16821F4D071C1602068DF
:101A8000416921F001014161202084F8390084F886
:101A90003A00002084F838000320BDE8F081206877
:101AA000006836EA000004D00020B842D9D00020F7
:101AB000F3E70120F9E700000148FFF70BBA000047
:101AC000B800002010B5FFF7E3FC002809D038204B
:101AD000FFF720FEFF2001F075FF0020FFF71AFE40
:101AE000012010BD10B5144641B101291DD00229B5
:101AF00014D0032915D00424204610BD0120FFF77F
:101B0000A9FB1420FEF74AFCFF2001F05BFFFF2831
:101B1000F7D100242046FFF79DFBEDE74FF400705E
:101B200000E0082010800024E6E7FFF7B6FB206005
:101B3000F9E770B514460D460BB148B901E0042031
:101B400070BDDAB221462846FFF7DEFB0028F7D049
:101B5000012070BD002804D0012803D0022801D044
:101B6000012070470020704770B514460D460BB138
:101B700048B901E0042070BDDAB221462846FFF7DB
:101B800043FC0028F7D0012070BDFEE770B5ADF52D
:101B90008C6D0D460646FFF77BFC012818D02FA060
:101BA00000F0EAF8012232A18BA801F0F9F80D2823
:101BB00010D000282AD02FA000F0DEF812223149E0
:101BC000684601F01BF90446E043400720D022E0BC
:101BD0002DA0E5E731A000F0CFF80022114628A0A3
:101BE00000F042FE08B132A0E6E735A000F0C4F8EC
:101BF00001221FA1002001F0D3F801221CA18BA813
:101C000001F0CEF80028D9D131A0D5E73BA0D3E729
:101C10003EA000F0B1F86846839900F0E3FC0CB1F7
:101C200040A00BE043A000F0A7F80DF25C432A4669
:101C30003146684601F00EFA68B145A000F09CF804
:101C4000684600F055FC012209A1002001F0A8F827
:101C50000DF58C6D70BD43A0F0E700005344BFA8A4
:101C6000B3F5CABCBBAFB3C9B9A6A3A1200D0A0086
:101C7000303A0000B9D2D4D8CAA7B0DC21200D0A6E
:101C800000000000040000205344BFA8B3F5CABC04
:101C9000BBAFCAA7B0DC21200D0A0000C3BBD3D064
:101CA000CEC4BCFECFB5CDB321200D0A000000008C
:101CB000B8F1CABDBBAFCAA7B0DC21200D0A000035
:101CC000B8F1CABDBBAFB3C9B9A621200D0A000047
:101CD0005344BFA8D2D1BEADB3C9B9A6B9D2D4D8E6
:101CE000A3ACBFC9D2D4BDF8BDF8D0D0CEC4BCFE21
:101CF000D0B4C8EBB2E2CAD4210D0A00B9D2D4D80C
:101D0000B3C9B9A621200D0A00000000BFA8B4E69F
:101D1000B4A2D2D1C2FAA3ACD0B4C8EBCAA7B0DC8B
:101D2000210D0A00B4F2BFAACEC4BCFECAA7B0DC23
:101D3000210D0A00B4F2BFAAB3C9B9A62FB4B4BD2D
:101D4000A8CEC4BCFEB3C9B9A6A3A1200D0A000049
:101D5000CEC4BCFED0B4C8EBCAA7B0DCA3A1200D92
:101D60000A000000CEC4BCFED0B4C8EBB3C9B9A60B
:101D7000A3A1200D0A0000000FB4054B10B503A964
:101D8000044A029800F018F810BC5DF814FB00003B
:101D9000453500085C00002002E008C8121F08C199
:101DA000002AFAD170477047002001E001C1121FDC
:101DB000002AFBD1704700002DE9FF4F89B09B46F8
:101DC0000446002506E025280BD05A460B9990477B
:101DD000641C6D1C20780028F5D10DB02846BDE8A4
:101DE000F08F0027B8460122474900E0074314F866
:101DF000013F203B02FA03F00842F7D120782E2859
:101E000019D114F8010F47F004072A280ED06FF0FB
:101E10002F022078A0F1300109290CD808EB8801A5
:101E200002EB410100EB0108641CF2E70A98641C14
:101E300050F8048B0A9020780028CED0642808D06F
:101E4000692806D075281ED05A460B9990476D1CFC
:101E500058E00A994FF00A0901C90A91002802DAEC
:101E600040422D2102E0390504D52B218DF82010A8
:101E7000012103E0F90704D02021F7E78A4608AEE4
:101E80000DE00021FAE70A994FF00A0901C90A9109
:101E9000F7E74946FEF758F9303106F8011D0028EA
:101EA000F7D1ADEB060000F12009780701D44FF01F
:101EB0000108C84502DDA8EB090000E000208046CB
:101EC000002706E008A85A46C05D0B9990476D1C94
:101ED0007F1C5745F6DB04E030205A460B999047AB
:101EE0006D1CB8F10001A8F10108F5DC05E016F859
:101EF000010B5A460B9990476D1CB9F10001A9F1ED
:101F00000109F4DC641C65E70928010010B50446EA
:101F1000002084F80402401EC4F82C02204601F080
:101F200083FC08B1032010BDB4F8FE01A0F52A41DE
:101F3000553901D0022010BD94F83600B4F837109E
:101F400040EA01210848B0EB012F08D094F8521064
:101F5000B4F8532041EA0221B0EB012F01D1002057
:101F600010BD012010BD000000464154F0B5002214
:101F7000184B144602EB420653F8265085B1D0F8B0
:101F80000072BD420DD103EB8605D0F808626F6880
:101F9000B74206D12D89B0F80662B54204D000E000
:101FA0000124521C022AE5D3022A01D079B904E0A7
:101FB0005CB9022909D01220F0BD02EB420003EB0C
:101FC00080004089B0F5807F01D00020F0BD102056
:101FD000F0BD0000F800002030B50021064A0C4694
:101FE00001EB410352F82350854201D142F82340CE
:101FF000491C0229F4D330BDF8000020D0F8242277
:10200000D0F80002490A90F80202B1FBF0F0121D6C
:1020100002CA19B1884203D3401AF8E7002070477A
:10202000116808447047D0F81422891E921E8A4213
:1020300001D800207047D0F8282290F8020201FB56
:10204000002070472DE9F0410F00054606D001F051
:1020500085FA02280BD20120BDE8F081D5F80C6288
:102060001EB1D5F81402B04208D8012606E0411C82
:10207000F2D0D5F814128142EED83E463446D5F857
:102080001402641CA04202D80224022E0AD3214664
:10209000284601F063FA38B1411CDDD00128DBD0BD
:1020A000B442ECD10020D7E76FF0704221462846B9
:1020B00001F0D5FB30B957B122463946284601F028
:1020C000CEFB20B1012812D001242046C4E7C5F878
:1020D0000C42D5F81002411CF7D0401EC5F8100282
:1020E00095F8050240F0010085F80502EDE74FF094
:1020F000FF34EAE72DE9F04789460C6800E0641CEC
:1021000021782F29FBD05C29F9D0D0F818520B2266
:102110002021284601F081FB002001460B460826BD
:10212000E25C5B1C202A35D92F2A33D05C2A31D0BF
:102130002E2A01D0B04208D3082E38D12E2A36D10B
:1021400008200B268906090EEAE7802A05D3244FCA
:1021500041F003013A4412F8802C22A700E07F1CD2
:1021600097F800C0BCF1000F02D09445F7D11EE0F3
:10217000A2F14107192F02D841F0020107E0A2F1B4
:102180006107192F03D8203A41F00101D2B22A5435
:10219000401CC5E71C44C9F80040202A01D804228D
:1021A00000E0002218B12878E52803D004E00620DA
:1021B000BDE8F08705202870082E01D18806010EA1
:1021C00001F00300012801D142F01002C1F38100A7
:1021D000012801D142F00802EA720020E8E700007D
:1021E0004E3B0008222A2B2C3A3B3C3D3E3F5B5D98
:1021F0007C7F0000401E022815D20C4B00EB4002F1
:1022000003EB82014889B0F5807F05D008B1401EFC
:1022100080B2488110B104E00020FAE7002043F8C2
:10222000220000207047022070470000F8000020C4
:102230002DE9F041B0F806620446761C30040F46E2
:10224000000C37D0D4F8100298B3310773D1401C7A
:10225000C4F81002D4F80C12D4F8000231B190F88E
:102260000222521E12EA161F05D064E0B0F80802DE
:10227000B0421FD95FE001F071F9054601281ED96F
:10228000681C3AD0D4F80002D0F81412A94249D8F8
:102290007FB1D4F80C12FFF7D5FE05000DD0012D4B
:1022A0000DD0681C29D0D4F8000201F0FEFB20BB41
:1022B00007E0FFE70420BDE8F0810720FBE70220EC
:1022C000F9E74FF400720021D4F8000201F0A5FAFA
:1022D0002946D4F80002FFF7A6FED4F80012002722
:1022E0004FF00108C1F82C0211E000BF80F8048211
:1022F000D4F8000201F0D9FB08B10120DBE7D4F8E3
:102300000002D0F82C12491C7F1CC0F82C12D4F803
:10231000000290F80212B942E8D8D0F82C12C91B7A
:10232000C0F82C12C4F80C522946D4F80002FFF76A
:102330007AFEC4F81002A4F80662D4F8000206F08F
:102340000F0100EB4110C4F814020020B3E770B590
:102350000446002100F036F810E0D4F81012D4F84A
:10236000000201F061FA58B9D4F814020078E528A7
:1023700009D040B101212046FFF75AFF0028ECD0D8
:10238000042809D009E0D4F81012D4F8000201F0B2
:102390004BFA050003D013E00720054610E0D4F8FF
:1023A00014022022002104F5007401F036FAD4E969
:1023B00005010B2201F028FA2168012081F80402AE
:1023C000284670BD70B5A0F80612D0F808320D4648
:1023D0000446012B40D0D4F80002D0F814129942E0
:1023E0003AD933B990F80012032906D1D0F8243233
:1023F0001BB190F80202060114E0B0F80812A942DD
:102400002AD9D0F8240214E001F0A8F80346401CB1
:1024100020D0022B20D3D4F80002D0F81402984226
:102420001AD9AD1BD4F80002B5421946ECD2FFF719
:10243000FAFDC4F80C3278B100EB1510C4F81002A4
:10244000D4F8000205F00F0100EB4110C4F81402AB
:10245000002070BD012070BD022070BD084910B57C
:102460000B5C002253B901220A540A1801EB8000C8
:10247000127A40680168104688470246104610BD2F
:102480001001002030B4054C231804EB80001B7AA7
:10249000406804691846A44630BC6047100100201B
:1024A00030B4054D2C1805EB8000247A406885680F
:1024B0002046AC4630BC604710010020044A111889
:1024C00002EB8000097A4068426808461047000025
:1024D0001001002030B4054D2C1805EB8000247A43
:1024E0004068C5682046AC4630BC604710010020FB
:1024F00010B5044600F052FD00280DD1204601F031
:1025000004FB002808D1D4F82802FFF773FE002846
:1025100002D10021C4F8001210BD2DE9F74F144676
:102520008A4600226946204600F080FE24685FEA61
:10253000000853D1D4E98407B91E884202D8CAF8EA
:1025400000004BE094F800920025B9F1010F02D091
:10255000D4F8206217E002263146204600F0FEFF44
:10256000411C03D0012803D028B105E0012000E080
:102570000220804628E06D1CD4F81402761C8642A6
:10258000EAD321E051B93146761C204601F04CF9DE
:102590005FEA000818D120464FF40071B9F1020F2C
:1025A00007D00278D0F8013042EA0322120106D0A7
:1025B00006E0028802B96D1C801C891E02E06D1CB9
:1025C000001D091F7F1EDDD1C4F8105294F80502CA
:1025D00040F0010084F80502CAF800504046BDE80A
:1025E000FE8F00002DE9FC5F0D46044601F08DFAD8
:1025F0005FEA000973D194F8070200286FD1D4F87C
:10260000240201274FF0020A002869D0691C33D048
:10261000D4F80C02A84200D20546C4F80852002D96
:102620005CD02046691EFFF7E9FC0146C4F814029D
:10263000D4F80002FFF7F7FC00287CD0D4F8001291
:102640006D1E91F80222521E02EA55221518B4F8A6
:102650000802C005E4D0D4F81822AA42E0D094F8C9
:102660000602400646D591F8010201232146FFF7F4
:1026700031FF002874D137E002C80091D4F810125D
:102680008346022509B30026AD1C01918846761CBD
:10269000D4F8000200F062FF014601284BD9481C23
:1026A0005ED008F101008142F0D00098854206D842
:1026B000CBF800600BF10400019A04C08346D4F803
:1026C0000002D0F814028842DDD8D4F82402056054
:1026D0000098854205D80021CBF80010C2E09DE0AB
:1026E00016E04FF01109BDE094F8060220F040001A
:1026F00084F80602D4F8000201232A4690F8010269
:102700002146FFF7CDFE00282AD1C4F81852A9E0CF
:10271000D4F80C02A84204D294F80612890700D417
:1027200005464FF00008D4F80802C4F808824DB3FB
:10273000D4F8002200E06EE092F802124E0280B15E
:10274000691E401EB1FBF6F1B0FBF6F3994208D3C7
:10275000711E8843C4F808022D1AD4F8141210E030
:102760006EE0D4F8101251B900211046FFF76AFC50
:10277000014601284FD0481C62D0C4F81012C4F89A
:10278000141211BB31E000BF94F806028007D4F8A0
:10279000000205D5FFF756FC010004D1354616E0CE
:1027A00000F0DCFE0146481C4AD0012933D9D4F898
:1027B0000002D0F8140288422DD9C4F81412D4F8BB
:1027C0000802AD1B3044C4F80802B542DCD8D4F886
:1027D00008022844C4F80802E80506D0D4F800022C
:1027E000FFF721FCB8B100EB5528B4F80802C0058A
:1027F0002CD0D4F81822424528D094F8060240067E
:1028000014D5D4F800020123214690F80102FFF705
:1028100061FEA8B904E084F807A20220BDE8FC9F8D
:1028200094F8060220F0400084F80602D4F8000272
:102830000123424690F801022146FFF731FE18B10C
:1028400084F807720120E9E7C4F81882D4E982010C
:10285000884207D9C4F80C0294F8060240F0200020
:1028600084F806024846D9E72DE9F74F8EB01546A1
:102870000F98012803D9132011B0BDE8F08F0EA8DE
:1028800000F0CFFE002801DA0B20F5E7FE4951F8F1
:10289000204054B1002184F80012C0B20390FFF729
:1028A000DDFDC10703D00320E6E70C20E4E7400785
:1028B00001D50A20E0E708AA01210398FFF7E2FD0D
:1028C00000287DD1089980297AD30F9808B100207B
:1028D00000E03F208046A1EB0801681E05420891F8
:1028E00000D17DB94FF4FA60B1FBF0F20020E74B64
:1028F00000E0401C33F810509542FAD8E34A1632F3
:1029000032F81050B5F5007F00D36D0A85B1802DE7
:1029100000D98025B1FBF5F0012640F6F672904211
:1029200000D302264FF6F672904203D3032620E02E
:102930000125EFE7032E1CD0012E23D04000001DFF
:1029400000F2FF10470A4FF001092020834608EBF0
:10295000090A0AEB0700584442190090A2EB08004C
:10296000884247D809AA03210398FFF78BFDA0B935
:102970000EE040F2072202EB8000470A4FF02009E8
:102980000020E3E700EB4000401C4008C01CD7E7F4
:10299000099810B1B0F5004F01D9012009900999AB
:1029A00000980844401E491E88430099401A099027
:1029B000032E12D007440898A0EB0901CA1B00E0BF
:1029C000DDE0A2EB0B01B1FBF5F10D91022E07D07A
:1029D000032E0AD0012E15D019E081448244EAE783
:1029E00040F6F672914205D311E008464FF6F671B3
:1029F000884201D20E203FE70C2002900F9868B168
:102A0000F02045E0B0F5803F06D20120F5E7B0F5B3
:102A1000803F01D20420F0E70620EEE74FF4007279
:102A20000021204600F0F9FE04F5DF70012141701D
:102A300081700021C170029A0271FE224271089BCE
:102A400008EB030243F6C163B2FBF3F23F2343EA10
:102A5000920C099280F806C0C271037241728172B1
:102A6000C172089901730A0A42730A0C8273090E33
:102A7000C173552084F8FE01AA2084F8FF010123C8
:102A8000002221460398FFF725FD002877D1F82082
:102A900002904FF400720021204600F0BEFE0B228F
:102AA0007BA1204600F0B0FE0021E17202202073DD
:102AB000657384F80E904FEA1920E07301202074AA
:102AC000032E0BD040026074000AA0740898B0F581
:102AD000803F05D2E074000A20750CE00020F2E788
:102AE00084F82000020A84F82120020C84F82220B5
:102AF000000E84F82300029860753F2020760020A5
:102B000060764FF0FF0984F81A90E07684F81C8014
:102B10004FEA182060774FEA1840A0774FEA186014
:102B2000E07700F07CFD802129220990032E27D038
:102B300084F82700030A84F82830030C84F829302D
:102B4000000E84F82A00A775380AE07584F824106E
:102B500084F82620132251A104F12B0000F054FE2A
:102B6000552084F8FE01AA2084F8FF010123424683
:102B700021460398FFF7AEFC002800D133E0BDE00A
:102B800084F84300030A84F84430030C84F8453089
:102B9000000E84F8460084F82470380A84F8250072
:102BA000380C84F82600380E84F82700022084F8B8
:102BB0002C00002084F82D0084F82E0084F82F00CB
:102BC000012384F8303084F83100062384F8323051
:102BD00084F8330084F8401084F84220132234A192
:102BE00004F14700BAE7032E06D1012308F10602DB
:102BF00021460398FFF76EFC4FF400720021204637
:102C000000F00BFE02990991032E12D0012E0ED076
:102C10006FF0FF000843099020700998000A607067
:102C20000998000CA0700998000EE0701EE025487D
:102C3000F0E761F0FF00099020700998000A6070C9
:102C40000998000CA0700998000EE07084F80490B8
:102C500084F8059084F8069084F8079084F808902A
:102C600084F8099084F80A900F20E07252460AF125
:102C70000109012321460398FFF72CFCF0BB4FF418
:102C80000072002120461FE058000020CE3B0008C3
:102C9000EBFE904D53444F53352E30004E4F204E97
:102CA000414D452020202046415420202020200056
:102CB0004E4F204E414D4520202020464154333276
:102CC0002020200000FFFF0000F0A7FD01200AE007
:102CD0004A4609F10109012321460398FFF7FAFB4F
:102CE00060B90998401C0990B842F1D3032E00D076
:102CF0005D464A4609F10109012300E042E0214610
:102D00000398FFF7E7FBE8BB6D1EF2D1032E3CD121
:102D10005220207060706120A0704121E170722209
:102D200084F8E42184F8E52184F8E61184F8E701C9
:102D30000D980123401E84F8E801010A84F8E91186
:102D4000010C84F8EA11000E84F8EB01022084F8EB
:102D5000EC01002084F8ED0184F8EE0184F8EF0125
:102D6000552084F8FE01AA2084F8FF0108F1010231
:102D700021460398FFF7AEFB012308F10702214625
:102D8000039800E009E0FFF7A5FB00221146039835
:102D9000FFF778FB00283FF478AD01206CE50000D8
:102DA0002DE9F74181B0904602980090684600F006
:102DB00038FC040003D50B2004B0BDE8F0810E4EB2
:102DC000002756F8245025B12846FFF705F985F865
:102DD00000720198002801D080F8007246F82400A3
:102DE00002D0B8F1010F01D00020E5E7002202A9CE
:102DF00001A800F01BFADFE7580000202DE9F74793
:102E0000ADF50B7D06000ED04FF0000802F01F0755
:102E100027F001028CA980A8C6F8008200F006FA0B
:102E2000040005D0B4E009200DF50E7DBDE8F08763
:102E300088A8869068468C9900F024FB859D040044
:102E40000BD11DB1780803D0012102E0062404E073
:102E500000216846FFF78AF8044617F01C0F5FD080
:102E60004FF0010AD4B1042C13D100204A4902E0EA
:102E7000401C022805D200EB400251F82220002A13
:102E8000F6D1022804D06846FFF761FA044600E054
:102E90001224859D47F0080754B179E0E87A10F0D4
:102EA000110F01D0072473E0780701D508246FE0E3
:102EB000380743D500F0B3FBA873010AE973010C8E
:102EC0002974000E687485F80B8085F81C8085F8DD
:102ED0001D8085F81E8085F81F802946809800F0A7
:102EE0000FFC81460021284600F07CFD8099B9F155
:102EF000000F81F804A21FD080984946D0F82CA278
:102F000000F029FD040043D18099A9F10100C1F826
:102F10000C025146809800F087FC04000AD037E08C
:102F2000B4BBE87AC10601D5042431E0B90701D564
:102F3000C007B7D1380701D547F020078098D0F8EF
:102F40002C02C6E98705780801D0012100E00021A4
:102F5000684600F085FBC6F82802D8B186F80672EC
:102F600086F807824746294606F50076809800F0E5
:102F7000C7FB3061287FD5F81D1040EA0120C6E963
:102F80000270B761776280983060B0F80602B08056
:102F9000204649E70224FBE7F800002070B504460C
:102FA00000F0B3FD002811D194F806128A060DD561
:102FB000480612D5D4F800020123214690F80102F8
:102FC000D4F81822FFF786FA08B1012070BD94F8F2
:102FD000060220F0400084F80602D4F81C12D4F84F
:102FE000000200F021FC0028F0D1D4F82052E87A49
:102FF00040F02000E87294F80C022877B4F80C0234
:10300000000A6877D4F80C02000CA877D4F80C02F8
:10301000000EE877D4F81012284604F5007400F08A
:10302000E1FC00F0FCFAA875010AE975010C2976AB
:10303000000E68760020A874E874A07920F02000C3
:10304000A0712168012081F804022068BDE8704069
:1030500000F0D0BC2DE9F84F88460021994615466E
:103060000446196000F051FD002808D194F80702C9
:10307000002804D194F80602800702D40720BDE896
:10308000F88FD4F80802012741194FF0020A814253
:103090007BD3B9E0D4F80812C80577D1D4F8002260
:1030A00092F80202401E00EA512010F0FF061ED1E5
:1030B00031B1D4F8240240B12046FEF79FFF09E069
:1030C000D4F8100240B9002101E0D4F814121046DF
:1030D000FEF7B8FF002858D001283DD0411C6CD025
:1030E000C4F81402D4F8101209B9C4F8100294F804
:1030F0000602400610D5D4F800020123214690F8BC
:103100000102D4F81822FFF7E5F9E8BB94F80602AB
:1031100020F0400084F80602D4F81412D4F800021B
:10312000FEF781FFC0B130440090680A5FEA000BEF
:1031300030D0D4F8000206EB0B0290F802128A425B
:1031400001D9A1EB060B90F801025B464146009ABB
:10315000FFF7C0F9C0B903E084F807A202208EE7A8
:10316000D4F818120098081A58450CD208EB4021E0
:103170004FF40072204600F047FB94F8060220F05E
:10318000400084F8060202E017E040E01CE04FEA4D
:103190004B262DE0D4F818120098814211D0D4E9C2
:1031A000820188420DD2D4F800020123214690F812
:1031B0000102009AFFF774F918B184F80772012030
:1031C0005DE70098C4F81802B4F80802C0F30800DC
:1031D000C0F50076AE4200D92E4620443246414624
:1031E00000F012FB94F8060240F0400084F806025A
:1031F000D4F80802B0443044C4F80802D9F80000FA
:103200008119AD1BC9F80010002D7FF443AFD4E93C
:103210008201884201D9C4F80C0294F8060240F0F9
:10322000200084F80602002029E700002DE9FF476E
:103230004FF000090746C0F800901646084600F017
:10324000F0F9050003D50B2004B0BDE8F0878A48EB
:1032500050F82540A4B13C6094F8000228B194F8DD
:103260000102FFF72BF9C1070CD084F80092E8B2F5
:1032700084F80102FFF7F2F8C10708D00320E3E762
:103280000C20E1E70EB1400704D40020DCE71EB1BA
:10329000400701D50A20D7E7002529462046FEF73A
:1032A00035FE012823D100204FEA0D0704EB001161
:1032B00091F8C22101F5DF712AB10A7AD1F809101B
:1032C00042EA012100E0002147F82010401C0428B8
:1032D000ECD3002657F826502DB129462046FEF79C
:1032E00015FE08B909E00220761C042EF2D303284B
:1032F00001D0E0BB01E00120A6E7B4F80B00B0F577
:10330000007F60D1E28A2AB994F82400D4F825100D
:1033100040EA0122C4F81822217C84F80312012912
:1033200001D002294FD1607B514384F80202F0B1F1
:10333000431E184247D1B4F81130A4F808321E07D2
:1033400041D1B4F813602EB994F82060D4F82170FC
:1033500046EA0726B4F80EC0BCF1000F33D00CEBE0
:10336000010707EB1317BE422DD3F61B00E02AE03E
:10337000B6FBF0F038B3012640F6F678404500D3AE
:1033800002264FF6F678404500D30326801C2F44D2
:10339000C4F82872AC44C4F81402C4E9875C032E54
:1033A00013D083B16144C4F82412022E19D000F066
:1033B000010100EB400001EB500000BF00F2FF10E4
:1033C000B2EB502F0FD20D203EE7002BFBD194F82B
:1033D0002C10D4F82D30800041EA0321C4F82412C7
:1033E000ECE74000EAE74FF0FF30C4F81002C4F801
:1033F0000C02802084F80502032E30D1208E012893
:103400002DD12046691C00F00FFA40BB84F80592CC
:10341000B4F8FE01A0F52A41553920D12078D4F81E
:10342000011040EA01201549884218D194F8E401BE
:10343000D4F8E51140EA0120114988420FD194F8EF
:10344000E801D4F8E91140EA0120C4F8100294F828
:10345000EC01D4F8ED1140EA0120C4F80C02064951
:1034600084F80062091F0888401C0880A4F806023E
:103470002046FEF7B1FD08E7580000205252614196
:103480007272416173B50446019908782F2801D002
:103490005C2801D1491C01910025C4F8085201980B
:1034A0000078202806D200212046FEF78BFFC4F8C2
:1034B00014527CBD01A92046FEF71CFE0028F8D15D
:1034C00000212046FEF77EFF20BB00BFD4F810127B
:1034D000D4F8000200F0A8F9E0B9D4F814120A7880
:1034E00032B1CA7A12070FD40A23D4F8182203E0A3
:1034F00004200FE05B1E06D311F8015B12F8016B8C
:10350000AD1BF7D000E02DB100212046FEF790FE64
:103510000028DBD0D4F81812C97A28B10428C8D101
:103520004907C6D405207CBD4907FCD4D4F8141241
:10353000C87AC006F6D5D4F8000200F0E1F8C4F865
:103540000802B7E713B54FF6FF7301226946024838
:10355000FDF7E4FD00981CBDB80000202DE9F04106
:103560000D46044602290DD3D4F81402A84209D905
:1035700094F800024FF0FF36012807D002282AD025
:10358000032836D001263046BDE8F081D4F8200269
:1035900005EB550700EB5721204600F045F90028C0
:1035A000F1D1C7F308007F1C14F80080D4F8200282
:1035B00000EB5721204600F037F90028E3D1C7F38C
:1035C0000800215C48EA0120E90701D00609DAE792
:1035D000C0F30B06D7E7D4F8200200EB15212046F4
:1035E00000F022F90028CED1E8B204EB40000688B2
:1035F000C9E7D4F8200200EBD511204600F014F9F9
:103600000028C0D140F2FF1000EA85002044017874
:10361000D0F8010041EA002020F07046B3E7002016
:10362000704710B504464FF0FF302268002A13D0CF
:10363000114600E0491C0B78212B0ED33A2BF9D10F
:1036400012F8013B303B0A2B06D28A4204D1002BF0
:1036500002D1491C1846216010BD002010BD000099
:10366000F0B50346254AD3F80042002000EB4005A0
:1036700052F82560A6420BD102EB8505D3F808620B
:103680006F68B74204D12D89B3F80662B54202D003
:10369000401C0228EAD302281AD1002002E0401C74
:1036A000022805D200EB400552F82550002DF6D136
:1036B000022815D000EB400542F8254002EB8504B6
:1036C000D3F808626660B3F8063223810023638171
:1036D000002900EB400102EB8101498902D019B1B8
:1036E0000020F0BD491C01E04FF4807100EB400365
:1036F00002EB8302401C5181F0BD0000F800002065
:103700000246488B92F80022032A02D1898A40EAB5
:103710000140704786B0FCF745FFFEF704F800242F
:103720002E480094019402940394816941F00401AD
:10373000816180692A4D00F0040004902246102126
:103740002846FCF71BFF102000900120CDE9010462
:103750000220039069462846FCF732FEFDF74CFD37
:10376000FDF73CFD20481F4901604FF4E131C0E9FD
:1037700001140C21C460C0E904418461C461FDF7F7
:1037800031FC012219491848FDF79EFC18A0FEF7EC
:10379000F3FAFCF727FD154D4FF4FA760B35A5F13A
:1037A0000C04124817210B30FEF7F0F93046FCF7F5
:1037B000F5FD28780A30287068780A30687020781B
:1037C000401C207005E00DA0FEF7D6FA3046FCF74D
:1037D000E5FD20780A28E4D9F5E700000010024052
:1037E0000008014000380140B8000020030000201C
:1037F000206D69616E200D0A000000002077686965
:103800006C65200D0A00000004E000BF11F8013BC8
:1038100000F8013B521EF9D27047C9B201E000F82E
:10382000011B521EFBD2704770B50546D0F82C0222
:103830000C460026A04210D0284600F036F90600BB
:103840000BD195F80102012322462946FEF728FEF6
:1038500008B1741E0126C5F82C42304670BD2DE912
:10386000F04717460D460446022903D3D4F8140244
:10387000A84202D80220BDE8F08794F8001207F0B1
:10388000FF084FF00109012920D0022950D0032957
:10389000F0D1D4F8200200EBD5112046FFF7C4FF89
:1038A0000028E8D140F2FF1101EA85010A194FF022
:1038B0007043D2F8011003EA0121394311700B0A59
:1038C00053700B0C9370090ED17041E0D4F82002B4
:1038D00005EB550600EB56212046FFF7A5FF002813
:1038E000C9D1C6F30800761C2044E90703D001784B
:1038F00068F31F1100E03946017084F80492D4F88F
:10390000200200EB56212046FFF78EFF0028B2D19F
:10391000C6F308012144EA0702D0C7F3071205E005
:103920000A78C7F3032302F0F0021A430A700FE08B
:10393000D4F8200200EB15212046FFF775FF002880
:1039400099D1E9B204EB41013A0A81F800804A704A
:1039500084F804928FE72DE9F0410F4606460229CC
:1039600017D3D6F81402B84213D9002523E03946FC
:103970003046FFF7F3FD040021D0012C09D0601C74
:1039800009D0002239463046FFF769FF050016D1FD
:1039900003E0022513E0012511E0D6F81002411CD6
:1039A00008D0401CC6F8100296F8050240F001004D
:1039B00086F805022746D6F81402B842D7D828461A
:1039C000BDE8F08101B582B064200090012301AA16
:1039D00002A90348FDF77CF99DF804000EBD000024
:1039E0006000002081760A0AC2760A0C0275090E70
:1039F0004175704770B5044600F057F8050052D184
:103A000094F80002032846D194F80502012842D117
:103A1000420200212046FFF700FF552084F8FE01F6
:103A2000AA2084F8FF015220207060706120A070ED
:103A30004121E170722284F8E42184F8E52184F8C0
:103A4000E61184F8E701D4F8100284F8E801010ACD
:103A500084F8E911010C84F8EA11000E84F8EB01F6
:103A6000D4F80C0284F8EC01010A84F8ED11010C81
:103A700084F8EE11000E84F8EF01D4F81C22012323
:103A8000521CC4F82C2294F801022146FEF722FDB4
:103A9000002084F80502002294F801021146FEF786
:103AA000F1FC00B10125284670BD2DE9F041044626
:103AB00090F80402002728B3D4F82C5294F801029D
:103AC00001232A462146FEF705FD08B1012719E02A
:103AD000002084F80402D4F82002D4F81812281A1E
:103AE00088420FD294F803620AE0D4F81802012346
:103AF000054494F801022A462146FEF7EBFC761EA7
:103B0000022EF2D23846BDE8F08110B588B1D0F867
:103B1000001271B191F800225AB1B1F80622B0F842
:103B20000402824205D191F80102FEF7C7FCC007EA
:103B300000D0092010BD00000000000000000102BC
:103B40000304060708090000000001020304809A2C
:103B500090B68EB78F80D2D3D4D8D7DE8E8F909286
:103B600092E299E3EAEB59999A9D9C9D9E9FB5D666
:103B7000E0E9A5A5A6A7A8A9AAABAC21AEAFB0B1B4
:103B8000B2B3B4B5B6B7B8B9BABBBCBDBEBFC0C19D
:103B9000C2C3C4C5C7C7C8C9CACBCCCDCECFD0D18C
:103BA000D2D3D4D5D6D7D8D9DADBDCDDDEDFE0E17D
:103BB000E2E3E5E5E6E7E7E9EAEBEDEDEEEFF0F16C
:103BC000F2F3F4F5F6F7F8F9FAFBFCFDFEFF00045A
:103BD00000020001800040002000100008000400E6
:103BE000020000000080004000200010000800409B
:103BF0000020001000080004000200001C3C000827
:103C00000000002060000000981D00087C3C0008B7
:103C100060000020C0140000A81D0008FF00000084
:103C200068656C6C6F2E747874003031207772691F
:103C30007465206275666620746F207364200D0AB7
:103C400000000000C51A0008551B0008331B0008BF
:103C5000691B0008E51A00080000000000000000D1
:103C600001000000100000000000000000A24A0453
:0C3C700000000000000000000000000048
:04000005080000ED02
:00000001FF
